{
  "contractName": "ganache",
  "abi": [
    {
      "inputs": [],
      "stateMutability": "nonpayable",
      "type": "constructor"
    },
    {
      "anonymous": false,
      "inputs": [
        {
          "indexed": true,
          "internalType": "address",
          "name": "owner",
          "type": "address"
        },
        {
          "indexed": true,
          "internalType": "address",
          "name": "sc",
          "type": "address"
        }
      ],
      "name": "NewContract",
      "type": "event"
    },
    {
      "anonymous": false,
      "inputs": [
        {
          "indexed": false,
          "internalType": "string",
          "name": "message",
          "type": "string"
        }
      ],
      "name": "NewMessage",
      "type": "event"
    },
    {
      "inputs": [],
      "name": "owner",
      "outputs": [
        {
          "internalType": "address",
          "name": "",
          "type": "address"
        }
      ],
      "stateMutability": "view",
      "type": "function",
      "constant": true
    },
    {
      "inputs": [],
      "name": "smartContract",
      "outputs": [
        {
          "internalType": "address",
          "name": "",
          "type": "address"
        }
      ],
      "stateMutability": "view",
      "type": "function",
      "constant": true
    },
    {
      "inputs": [
        {
          "internalType": "string",
          "name": "_message",
          "type": "string"
        }
      ],
      "name": "setMessageNew",
      "outputs": [],
      "stateMutability": "nonpayable",
      "type": "function"
    },
    {
      "inputs": [],
      "name": "getMessage",
      "outputs": [
        {
          "internalType": "string",
          "name": "",
          "type": "string"
        }
      ],
      "stateMutability": "view",
      "type": "function",
      "constant": true
    }
  ],
  "bytecode": "0x60806040526040518060200160405280600081525060029080519060200190610029929190610159565b5034801561003657600080fd5b50336000806101000a81548173ffffffffffffffffffffffffffffffffffffffff021916908373ffffffffffffffffffffffffffffffffffffffff16021790555030600160006101000a81548173ffffffffffffffffffffffffffffffffffffffff021916908373ffffffffffffffffffffffffffffffffffffffff160217905550600160009054906101000a900473ffffffffffffffffffffffffffffffffffffffff1673ffffffffffffffffffffffffffffffffffffffff1660008054906101000a900473ffffffffffffffffffffffffffffffffffffffff1673ffffffffffffffffffffffffffffffffffffffff167f17182ea1a6748f7923ea0bfb4bf8bc76cc894e662541ad1ea15797322d541db860405160405180910390a361025c565b8280546101659061022b565b90600052602060002090601f01602090048101928261018757600085556101ce565b82601f106101a057805160ff19168380011785556101ce565b828001600101855582156101ce579182015b828111156101cd5782518255916020019190600101906101b2565b5b5090506101db91906101df565b5090565b5b808211156101f85760008160009055506001016101e0565b5090565b7f4e487b7100000000000000000000000000000000000000000000000000000000600052602260045260246000fd5b6000600282049050600182168061024357607f821691505b602082108103610256576102556101fc565b5b50919050565b61068e8061026b6000396000f3fe608060405234801561001057600080fd5b506004361061004c5760003560e01c80635d33077d146100515780638da5cb5b1461006d578063ce6d41de1461008b578063f62639e5146100a9575b600080fd5b61006b600480360381019061006691906103f2565b6100c7565b005b610075610119565b604051610082919061047c565b60405180910390f35b61009361013d565b6040516100a0919061051f565b60405180910390f35b6100b16101cf565b6040516100be919061047c565b60405180910390f35b80600290805190602001906100dd9291906101f5565b507f476e04c786e60f629af918e59f7b2d948f3b488bf1258cab1bf3a4351521b46f600260405161010e9190610636565b60405180910390a150565b60008054906101000a900473ffffffffffffffffffffffffffffffffffffffff1681565b60606002805461014c90610570565b80601f016020809104026020016040519081016040528092919081815260200182805461017890610570565b80156101c55780601f1061019a576101008083540402835291602001916101c5565b820191906000526020600020905b8154815290600101906020018083116101a857829003601f168201915b5050505050905090565b600160009054906101000a900473ffffffffffffffffffffffffffffffffffffffff1681565b82805461020190610570565b90600052602060002090601f016020900481019282610223576000855561026a565b82601f1061023c57805160ff191683800117855561026a565b8280016001018555821561026a579182015b8281111561026957825182559160200191906001019061024e565b5b509050610277919061027b565b5090565b5b8082111561029457600081600090555060010161027c565b5090565b6000604051905090565b600080fd5b600080fd5b600080fd5b600080fd5b6000601f19601f8301169050919050565b7f4e487b7100000000000000000000000000000000000000000000000000000000600052604160045260246000fd5b6102ff826102b6565b810181811067ffffffffffffffff8211171561031e5761031d6102c7565b5b80604052505050565b6000610331610298565b905061033d82826102f6565b919050565b600067ffffffffffffffff82111561035d5761035c6102c7565b5b610366826102b6565b9050602081019050919050565b82818337600083830152505050565b600061039561039084610342565b610327565b9050828152602081018484840111156103b1576103b06102b1565b5b6103bc848285610373565b509392505050565b600082601f8301126103d9576103d86102ac565b5b81356103e9848260208601610382565b91505092915050565b600060208284031215610408576104076102a2565b5b600082013567ffffffffffffffff811115610426576104256102a7565b5b610432848285016103c4565b91505092915050565b600073ffffffffffffffffffffffffffffffffffffffff82169050919050565b60006104668261043b565b9050919050565b6104768161045b565b82525050565b6000602082019050610491600083018461046d565b92915050565b600081519050919050565b600082825260208201905092915050565b60005b838110156104d15780820151818401526020810190506104b6565b838111156104e0576000848401525b50505050565b60006104f182610497565b6104fb81856104a2565b935061050b8185602086016104b3565b610514816102b6565b840191505092915050565b6000602082019050818103600083015261053981846104e6565b905092915050565b7f4e487b7100000000000000000000000000000000000000000000000000000000600052602260045260246000fd5b6000600282049050600182168061058857607f821691505b60208210810361059b5761059a610541565b5b50919050565b60008190508160005260206000209050919050565b600081546105c381610570565b6105cd81866104a2565b945060018216600081146105e857600181146105fa5761062d565b60ff198316865260208601935061062d565b610603856105a1565b60005b8381101561062557815481890152600182019150602081019050610606565b808801955050505b50505092915050565b6000602082019050818103600083015261065081846105b6565b90509291505056fea2646970667358221220eb2e7b576d871eb3246afc13938182036a9fdf25f9242a6573400b55c69ec07f64736f6c634300080d0033",
  "immutableReferences": {},
  "source": "// SPDX-License-Identifier: MIT\r\npragma solidity ^0.8.13;\r\n\r\ncontract ganache {\r\n    // address owner\r\n    address public owner;\r\n    address public smartContract;\r\n\r\n    string mensaje = \"\";\r\n\r\n    // Eventos para capturar en el SC\r\n    event NewContract(address indexed owner, address indexed sc);\r\n    event NewMessage(string message);\r\n\r\n    constructor() {\r\n        owner = msg.sender;\r\n        smartContract = address(this);\r\n        emit NewContract(owner, smartContract);\r\n    }\r\n\r\n    function setMessageNew(string memory _message) public {\r\n        mensaje = _message;\r\n        emit NewMessage(mensaje);\r\n    }\r\n\r\n    function getMessage() public view returns (string memory) {\r\n        return mensaje;\r\n    }\r\n}\r\n",
  "sourcePath": "C:\\Users\\migue\\OneDrive\\Escritorio\\Learning-BlockChain\\Truffle\\contracts\\ganache.sol",
  "compiler": {
    "name": "solc",
    "version": "0.8.13+commit.abaa5c0e.Emscripten.clang"
  },
  "schemaVersion": "3.4.7",
  "updatedAt": "2022-12-28T19:11:11.552Z",
  "networkType": "ethereum",
  "devdoc": {
    "kind": "dev",
    "methods": {},
    "version": 1
  },
  "userdoc": {
    "kind": "user",
    "methods": {},
    "version": 1
  }
}